{
  "contractName": "ScavengerHunt",
  "abi": [
    {
      "constant": false,
      "inputs": [
        {
          "name": "_numberOfPlayers",
          "type": "uint256"
        },
        {
          "name": "Wager",
          "type": "uint256"
        },
        {
          "name": "Start",
          "type": "uint256"
        },
        {
          "name": "End",
          "type": "uint256"
        },
        {
          "name": "totalGoals",
          "type": "uint256"
        },
        {
          "name": "_judge",
          "type": "address"
        }
      ],
      "name": "CreateGame",
      "outputs": [],
      "payable": false,
      "stateMutability": "nonpayable",
      "type": "function"
    },
    {
      "constant": false,
      "inputs": [
        {
          "name": "_game",
          "type": "uint256"
        },
        {
          "name": "goal",
          "type": "uint256"
        },
        {
          "name": "location",
          "type": "uint256"
        },
        {
          "name": "info",
          "type": "string"
        },
        {
          "name": "points",
          "type": "uint256"
        }
      ],
      "name": "SetGoal",
      "outputs": [],
      "payable": false,
      "stateMutability": "nonpayable",
      "type": "function"
    },
    {
      "constant": false,
      "inputs": [
        {
          "name": "_game",
          "type": "uint256"
        },
        {
          "name": "goal",
          "type": "uint256"
        },
        {
          "name": "IPFShash",
          "type": "bytes32"
        },
        {
          "name": "location",
          "type": "uint256"
        }
      ],
      "name": "registerGoal",
      "outputs": [],
      "payable": false,
      "stateMutability": "nonpayable",
      "type": "function"
    },
    {
      "constant": false,
      "inputs": [
        {
          "name": "player",
          "type": "address"
        },
        {
          "name": "_game",
          "type": "uint256"
        }
      ],
      "name": "registerPlayer",
      "outputs": [],
      "payable": false,
      "stateMutability": "nonpayable",
      "type": "function"
    },
    {
      "constant": false,
      "inputs": [
        {
          "name": "_game",
          "type": "uint256"
        }
      ],
      "name": "playerWager",
      "outputs": [],
      "payable": true,
      "stateMutability": "payable",
      "type": "function"
    },
    {
      "constant": false,
      "inputs": [
        {
          "name": "_game",
          "type": "uint256"
        }
      ],
      "name": "withDrawPlayerWager",
      "outputs": [],
      "payable": false,
      "stateMutability": "nonpayable",
      "type": "function"
    },
    {
      "constant": false,
      "inputs": [
        {
          "name": "_game",
          "type": "uint256"
        },
        {
          "name": "_goal",
          "type": "uint256"
        },
        {
          "name": "order",
          "type": "uint256"
        }
      ],
      "name": "VerifyGoal",
      "outputs": [],
      "payable": false,
      "stateMutability": "nonpayable",
      "type": "function"
    },
    {
      "constant": true,
      "inputs": [
        {
          "name": "player",
          "type": "address"
        },
        {
          "name": "_game",
          "type": "uint256"
        }
      ],
      "name": "GetPlayerInfo",
      "outputs": [
        {
          "name": "",
          "type": "uint256"
        },
        {
          "name": "",
          "type": "uint256"
        },
        {
          "name": "",
          "type": "bool"
        },
        {
          "name": "",
          "type": "bool"
        }
      ],
      "payable": false,
      "stateMutability": "view",
      "type": "function"
    },
    {
      "constant": true,
      "inputs": [
        {
          "name": "_game",
          "type": "uint256"
        }
      ],
      "name": "GetGameDetails",
      "outputs": [
        {
          "name": "",
          "type": "address"
        },
        {
          "name": "",
          "type": "address"
        },
        {
          "name": "",
          "type": "uint256"
        },
        {
          "name": "",
          "type": "uint256"
        },
        {
          "name": "",
          "type": "uint256"
        },
        {
          "name": "",
          "type": "uint256"
        },
        {
          "name": "",
          "type": "uint256"
        },
        {
          "name": "",
          "type": "uint256"
        },
        {
          "name": "",
          "type": "uint256"
        }
      ],
      "payable": false,
      "stateMutability": "view",
      "type": "function"
    },
    {
      "constant": true,
      "inputs": [
        {
          "name": "_game",
          "type": "uint256"
        },
        {
          "name": "_goal",
          "type": "uint256"
        }
      ],
      "name": "GetGoalDetails",
      "outputs": [
        {
          "name": "",
          "type": "uint256"
        },
        {
          "name": "",
          "type": "string"
        },
        {
          "name": "",
          "type": "uint256"
        },
        {
          "name": "",
          "type": "bool"
        },
        {
          "name": "",
          "type": "uint256"
        }
      ],
      "payable": false,
      "stateMutability": "view",
      "type": "function"
    },
    {
      "constant": true,
      "inputs": [
        {
          "name": "player",
          "type": "address"
        },
        {
          "name": "_game",
          "type": "uint256"
        },
        {
          "name": "_goal",
          "type": "uint256"
        }
      ],
      "name": "GetSubmission",
      "outputs": [
        {
          "name": "",
          "type": "uint256"
        },
        {
          "name": "",
          "type": "bytes32"
        }
      ],
      "payable": false,
      "stateMutability": "view",
      "type": "function"
    },
    {
      "constant": true,
      "inputs": [
        {
          "name": "user",
          "type": "address"
        }
      ],
      "name": "GetGamesArray",
      "outputs": [
        {
          "name": "",
          "type": "uint256[]"
        }
      ],
      "payable": false,
      "stateMutability": "view",
      "type": "function"
    },
    {
      "constant": false,
      "inputs": [
        {
          "name": "n",
          "type": "uint256"
        }
      ],
      "name": "SetGameID",
      "outputs": [],
      "payable": false,
      "stateMutability": "nonpayable",
      "type": "function"
    }
  ],
  "bytecode": "0x608060405234801561001057600080fd5b50611bd5806100206000396000f3006080604052600436106100c5576000357c0100000000000000000000000000000000000000000000000000000000900463ffffffff16806304e2b4c8146100ca57806316157a88146100f7578063166bf318146101755780632b29757a14610245578063399e577c146102dd5780633e6bbda51461031e5780635d0ba0b41461033e57806378c9d3cf1461038d57806380609c471461045e5780639aabe36d146104d8578063c23eef2214610525578063c617414c146105b6578063e8420cab146105e3575b600080fd5b3480156100d657600080fd5b506100f560048036038101908080359060200190929190505050610658565b005b34801561010357600080fd5b50610142600480360381019080803573ffffffffffffffffffffffffffffffffffffffff169060200190929190803590602001909291905050506106c4565b60405180858152602001848152602001831515151581526020018215151515815260200194505050505060405180910390f35b34801561018157600080fd5b506101aa6004803603810190808035906020019092919080359060200190929190505050610841565b604051808681526020018060200185815260200184151515158152602001838152602001828103825286818151815260200191508051906020019080838360005b838110156102065780820151818401526020810190506101eb565b50505050905090810190601f1680156102335780820380516001836020036101000a031916815260200191505b50965050505050505060405180910390f35b34801561025157600080fd5b50610286600480360381019080803573ffffffffffffffffffffffffffffffffffffffff169060200190929190505050610992565b6040518080602001828103825283818151815260200191508051906020019060200280838360005b838110156102c95780820151818401526020810190506102ae565b505050509050019250505060405180910390f35b3480156102e957600080fd5b5061031c600480360381019080803590602001909291908035906020019092919080359060200190929190505050610a29565b005b61033c60048036038101908080359060200190929190505050610c2b565b005b34801561034a57600080fd5b5061038b6004803603810190808035906020019092919080359060200190929190803560001916906020019092919080359060200190929190505050610d36565b005b34801561039957600080fd5b506103b860048036038101908080359060200190929190505050610f98565b604051808a73ffffffffffffffffffffffffffffffffffffffff1673ffffffffffffffffffffffffffffffffffffffff1681526020018973ffffffffffffffffffffffffffffffffffffffff1673ffffffffffffffffffffffffffffffffffffffff168152602001888152602001878152602001868152602001858152602001848152602001838152602001828152602001995050505050505050505060405180910390f35b34801561046a57600080fd5b506104b3600480360381019080803573ffffffffffffffffffffffffffffffffffffffff169060200190929190803590602001909291908035906020019092919050505061110f565b6040518083815260200182600019166000191681526020019250505060405180910390f35b3480156104e457600080fd5b50610523600480360381019080803573ffffffffffffffffffffffffffffffffffffffff16906020019092919080359060200190929190505050611221565b005b34801561053157600080fd5b506105b4600480360381019080803590602001909291908035906020019092919080359060200190929190803590602001908201803590602001908080601f016020809104026020016040519081016040528093929190818152602001838380828437820191505050505050919291929080359060200190929190505050611481565b005b3480156105c257600080fd5b506105e160048036038101908080359060200190929190505050611600565b005b3480156105ef57600080fd5b506106566004803603810190808035906020019092919080359060200190929190803590602001909291908035906020019092919080359060200190929190803573ffffffffffffffffffffffffffffffffffffffff1690602001909291905050506117a7565b005b600160003373ffffffffffffffffffffffffffffffffffffffff1673ffffffffffffffffffffffffffffffffffffffff16815260200190815260200160002081908060018154018082558091505090600182039060005260206000200160009091929091909150555050565b600080600080600080868152602001908152602001600020600e0160008773ffffffffffffffffffffffffffffffffffffffff1673ffffffffffffffffffffffffffffffffffffffff16815260200190815260200160002054600080878152602001908152602001600020600d0160008873ffffffffffffffffffffffffffffffffffffffff1673ffffffffffffffffffffffffffffffffffffffff1681526020019081526020016000205460008088815260200190815260200160002060070160008973ffffffffffffffffffffffffffffffffffffffff1673ffffffffffffffffffffffffffffffffffffffff16815260200190815260200160002060009054906101000a900460ff1660008089815260200190815260200160002060060160008a73ffffffffffffffffffffffffffffffffffffffff1673ffffffffffffffffffffffffffffffffffffffff16815260200190815260200160002060009054906101000a900460ff16935093509350935092959194509250565b600060606000806000610852611a17565b600080898152602001908152602001600020600c01600088815260200190815260200160002060a0604051908101604052908160008201548152602001600182018054600181600116156101000203166002900480601f0160208091040260200160405190810160405280929190818152602001828054600181600116156101000203166002900480156109275780601f106108fc57610100808354040283529160200191610927565b820191906000526020600020905b81548152906001019060200180831161090a57829003601f168201915b50505050508152602001600282015481526020016003820160009054906101000a900460ff1615151515815260200160048201548152505090508060000151816020015182604001518360600151846080015183935095509550955095509550509295509295909350565b6060600160008373ffffffffffffffffffffffffffffffffffffffff1673ffffffffffffffffffffffffffffffffffffffff168152602001908152602001600020805480602002602001604051908101604052809291908181526020018280548015610a1d57602002820191906000526020600020905b815481526020019060010190808311610a09575b50505050509050919050565b600080600080600087815260200190815260200160002060000160009054906101000a900473ffffffffffffffffffffffffffffffffffffffff1673ffffffffffffffffffffffffffffffffffffffff163373ffffffffffffffffffffffffffffffffffffffff16141515610a9d57600080fd5b6000808781526020019081526020016000209250600183600c01600087815260200190815260200160002060030160006101000a81548160ff021916908315150217905550600183600b016000828254019250508190555082600c016000868152602001908152602001600020600601600085815260200190815260200160002060009054906101000a900473ffffffffffffffffffffffffffffffffffffffff16915082600c01600086815260200190815260200160002060050160008373ffffffffffffffffffffffffffffffffffffffff1673ffffffffffffffffffffffffffffffffffffffff168152602001908152602001600020905082600c0160008681526020019081526020016000206002015483600d0160008360030160009054906101000a900473ffffffffffffffffffffffffffffffffffffffff1673ffffffffffffffffffffffffffffffffffffffff1673ffffffffffffffffffffffffffffffffffffffff16815260200190815260200160002060008282540192505081905550505050505050565b600080600083815260200190815260200160002090506000808381526020019081526020016000206008015442101515610c6457600080fd5b600115158160060160003373ffffffffffffffffffffffffffffffffffffffff1673ffffffffffffffffffffffffffffffffffffffff16815260200190815260200160002060009054906101000a900460ff161515141515610cc557600080fd5b80600401543410151515610cd857600080fd5b60018160070160003373ffffffffffffffffffffffffffffffffffffffff1673ffffffffffffffffffffffffffffffffffffffff16815260200190815260200160002060006101000a81548160ff0219169083151502179055505050565b610d3e611a49565b6000806001151560008089815260200190815260200160002060060160003373ffffffffffffffffffffffffffffffffffffffff1673ffffffffffffffffffffffffffffffffffffffff16815260200190815260200160002060009054906101000a900460ff161515141515610db357600080fd5b85600080898152602001908152602001600020600a0154111515610dd657600080fd5b608060405190810160405280428152602001858152602001866000191681526020013373ffffffffffffffffffffffffffffffffffffffff1681525092506000808881526020019081526020016000209150600182600c016000888152602001908152602001600020600401540190508282600c01600088815260200190815260200160002060050160003373ffffffffffffffffffffffffffffffffffffffff1673ffffffffffffffffffffffffffffffffffffffff16815260200190815260200160002060008201518160000155602082015181600101556040820151816002019060001916905560608201518160030160006101000a81548173ffffffffffffffffffffffffffffffffffffffff021916908373ffffffffffffffffffffffffffffffffffffffff1602179055509050503382600c016000888152602001908152602001600020600601600083815260200190815260200160002060006101000a81548173ffffffffffffffffffffffffffffffffffffffff021916908373ffffffffffffffffffffffffffffffffffffffff1602179055508082600c0160008881526020019081526020016000206004018190555050505050505050565b6000806000806000806000806000610fae611a8b565b6000808c815260200190815260200160002061012060405190810160405290816000820160009054906101000a900473ffffffffffffffffffffffffffffffffffffffff1673ffffffffffffffffffffffffffffffffffffffff1673ffffffffffffffffffffffffffffffffffffffff1681526020016001820160009054906101000a900473ffffffffffffffffffffffffffffffffffffffff1673ffffffffffffffffffffffffffffffffffffffff1673ffffffffffffffffffffffffffffffffffffffff1681526020016002820154815260200160038201548152602001600482015481526020016008820154815260200160098201548152602001600a8201548152602001600b820154815250509050806000015181602001518260400151836060015184608001518560a001518660c001518760e00151886101000151995099509950995099509950995099509950509193959799909294969850565b60008061111a611a49565b600080868152602001908152602001600020600c01600085815260200190815260200160002060050160008773ffffffffffffffffffffffffffffffffffffffff1673ffffffffffffffffffffffffffffffffffffffff1681526020019081526020016000206080604051908101604052908160008201548152602001600182015481526020016002820154600019166000191681526020016003820160009054906101000a900473ffffffffffffffffffffffffffffffffffffffff1673ffffffffffffffffffffffffffffffffffffffff1673ffffffffffffffffffffffffffffffffffffffff16815250509050806000015181604001519250925050935093915050565b600080600080848152602001908152602001600020600801544210151561124757600080fd5b60008084815260200190815260200160002060010160009054906101000a900473ffffffffffffffffffffffffffffffffffffffff1673ffffffffffffffffffffffffffffffffffffffff163373ffffffffffffffffffffffffffffffffffffffff161415156112b657600080fd5b60008084815260200190815260200160002060020154600080858152602001908152602001600020600301541015156112ee57600080fd5b6000151560008085815260200190815260200160002060060160008673ffffffffffffffffffffffffffffffffffffffff1673ffffffffffffffffffffffffffffffffffffffff16815260200190815260200160002060009054906101000a900460ff16151514151561136057600080fd5b6000808481526020019081526020016000209150600182600301540190508382600501600083815260200190815260200160002060006101000a81548173ffffffffffffffffffffffffffffffffffffffff021916908373ffffffffffffffffffffffffffffffffffffffff16021790555060018260060160008673ffffffffffffffffffffffffffffffffffffffff1673ffffffffffffffffffffffffffffffffffffffff16815260200190815260200160002060006101000a81548160ff0219169083151502179055508082600e0160008673ffffffffffffffffffffffffffffffffffffffff1673ffffffffffffffffffffffffffffffffffffffff1681526020019081526020016000208190555080826003018190555050505050565b600061148b611a17565b60008088815260200190815260200160002060010160009054906101000a900473ffffffffffffffffffffffffffffffffffffffff1673ffffffffffffffffffffffffffffffffffffffff163373ffffffffffffffffffffffffffffffffffffffff161415156114fa57600080fd5b600080888152602001908152602001600020600a01548610151561151d57600080fd5b600080888152602001908152602001600020600801544210151561154057600080fd5b600080888152602001908152602001600020915060a06040519081016040528086815260200185815260200160018152602001600015158152602001600081525090508082600c0160008881526020019081526020016000206000820151816000015560208201518160010190805190602001906115bf929190611b04565b506040820151816002015560608201518160030160006101000a81548160ff0219169083151502179055506080820151816004015590505050505050505050565b6000806000838152602001908152602001600020600901544211151561162557600080fd5b600080838152602001908152602001600020600201546000808481526020019081526020016000206003015414151561165d57600080fd5b600080838152602001908152602001600020600a0154600080848152602001908152602001600020600d0160003373ffffffffffffffffffffffffffffffffffffffff1673ffffffffffffffffffffffffffffffffffffffff168152602001908152602001600020546103e8600080868152602001908152602001600020600201546000808781526020019081526020016000206004015402020281151561170157fe5b0490506000806000848152602001908152602001600020600d0160003373ffffffffffffffffffffffffffffffffffffffff1673ffffffffffffffffffffffffffffffffffffffff168152602001908152602001600020819055503373ffffffffffffffffffffffffffffffffffffffff166108fc829081150290604051600060405180830381858888f193505050501580156117a2573d6000803e3d6000fd5b505050565b6117af611a8b565b6000610120604051908101604052808473ffffffffffffffffffffffffffffffffffffffff1681526020013373ffffffffffffffffffffffffffffffffffffffff1681526020018981526020016000815260200188815260200187815260200186815260200185815260200160008152509150600260003373ffffffffffffffffffffffffffffffffffffffff1673ffffffffffffffffffffffffffffffffffffffff168152602001908152602001600020549050600554600160003373ffffffffffffffffffffffffffffffffffffffff1673ffffffffffffffffffffffffffffffffffffffff168152602001908152602001600020828154811015156118b357fe5b906000526020600020018190555081600080600554815260200190815260200160002060008201518160000160006101000a81548173ffffffffffffffffffffffffffffffffffffffff021916908373ffffffffffffffffffffffffffffffffffffffff16021790555060208201518160010160006101000a81548173ffffffffffffffffffffffffffffffffffffffff021916908373ffffffffffffffffffffffffffffffffffffffff16021790555060408201518160020155606082015181600301556080820151816004015560a0820151816008015560c0820151816009015560e082015181600a015561010082015181600b01559050506001600260003373ffffffffffffffffffffffffffffffffffffffff1673ffffffffffffffffffffffffffffffffffffffff1681526020019081526020016000206000828254019250508190555060016005600082825401925050819055505050505050505050565b60a060405190810160405280600081526020016060815260200160008152602001600015158152602001600081525090565b608060405190810160405280600081526020016000815260200160008019168152602001600073ffffffffffffffffffffffffffffffffffffffff1681525090565b61012060405190810160405280600073ffffffffffffffffffffffffffffffffffffffff168152602001600073ffffffffffffffffffffffffffffffffffffffff168152602001600081526020016000815260200160008152602001600081526020016000815260200160008152602001600081525090565b828054600181600116156101000203166002900490600052602060002090601f016020900481019282601f10611b4557805160ff1916838001178555611b73565b82800160010185558215611b73579182015b82811115611b72578251825591602001919060010190611b57565b5b509050611b809190611b84565b5090565b611ba691905b80821115611ba2576000816000905550600101611b8a565b5090565b905600a165627a7a723058203dfaf0ff9f2f40c163045220dffbf507961110c4ab2cb0238deeba1371c065a40029",
  "source": "\n\n\n\n\ncontract ScavengerHunt{\n\nmapping(uint=>Game) Games;\nmapping(address=>uint[]) GameID;\nmapping(address=>uint) TotalGames;\nmapping(address=>uint[]) RegisteredGames;\nmapping(uint=>bool) GameValid;\nuint totalGames;\n\nstruct Game{\n address judge;\n address creator;\n uint numberOfPlayers;\n uint registeredPlayers;\n uint playerWagerRequirement;\n mapping(uint=>address) players;\n mapping(address=>bool) registered;\n  mapping(address=>bool) Wagered;\n uint startDate;\n uint endDate;\n uint numberOfGoals;\n uint goalsVerified;\n\n mapping(uint=>Goal) Goals;\n mapping(address=>uint) playerPoints;\n mapping(address=>uint) playerID;\n}\n\nstruct Goal{\n uint location;\n string Info;\n uint points;\n bool Verified;\n uint submissionTotal;\n mapping(address=>Submission) Submissions;\n mapping(uint=>address) Order;\n}\nstruct Submission{\n  uint time;\n  uint location;\n  bytes32 IPFShash;\n  address sender;\n}\n\nfunction CreateGame(uint _numberOfPlayers,uint Wager,uint Start,uint End,uint totalGoals,address _judge){\nGame memory temp =Game(_judge,msg.sender,_numberOfPlayers,0,Wager,Start,End,totalGoals,0);\n uint mygames=TotalGames[msg.sender];\n GameID[msg.sender][mygames]=totalGames;\n Games[totalGames]=temp;\n TotalGames[msg.sender]+=1;\n totalGames+=1;\n}\n\nfunction SetGoal(uint _game,uint goal,uint location,string info,uint points){\nrequire(msg.sender==Games[_game].creator);\nrequire(goal<Games[_game].numberOfGoals);\nrequire(now<Games[_game].startDate);\nGame storage temp=Games[_game];\nGoal memory newGoal= Goal(location,info,1,false,0);\ntemp.Goals[goal]=newGoal;\n}\n\nfunction registerGoal(uint _game,uint goal,bytes32 IPFShash,uint location){\n  require(Games[_game].registered[msg.sender]==true);\n  require(Games[_game].numberOfGoals>goal);\n  Submission memory Sub=Submission(now,location,IPFShash,msg.sender);\n  Game storage temp=Games[_game];\n  uint count=temp.Goals[goal].submissionTotal+1;\n  temp.Goals[goal].Submissions[msg.sender]=Sub;\n  temp.Goals[goal].Order[count]=msg.sender;\n  temp.Goals[goal].submissionTotal=count;\n\n}\n\nfunction registerPlayer(address player,uint _game){\n\nrequire(now<Games[_game].startDate);\nrequire(msg.sender==Games[_game].creator);\nrequire(Games[_game].registeredPlayers<Games[_game].numberOfPlayers);\nrequire(Games[_game].registered[player]==false);\nGame storage temp=Games[_game];\nuint count=temp.registeredPlayers+1;\ntemp.players[count]=player;\ntemp.registered[player]=true;\ntemp.playerID[player]=count;\ntemp.registeredPlayers=count;\n}\n\n\nfunction playerWager(uint _game) payable{\n  Game storage temp=Games[_game];\n  require(now<Games[_game].startDate);\n  require(temp.registered[msg.sender]==true);\n  require(msg.value>=temp.playerWagerRequirement);\n  temp.Wagered[msg.sender]=true;\n}\nfunction withDrawPlayerWager(uint _game){\n  require(now>Games[_game].endDate);\n  require(Games[_game].registeredPlayers==Games[_game].numberOfPlayers);\n  uint amount= (Games[_game].playerWagerRequirement*Games[_game].numberOfPlayers*1000*Games[_game].playerPoints[msg.sender])/(Games[_game].numberOfGoals);\n  Games[_game].playerPoints[msg.sender]=0;\n  msg.sender.transfer(amount);\n}\n\nfunction VerifyGoal(uint _game,uint _goal,uint order){\n  require(msg.sender==Games[_game].judge);\n  Game storage temp=Games[_game];\n  temp.Goals[_goal].Verified=true;\n  temp.goalsVerified+=1;\n  address player=temp.Goals[_goal].Order[order];\n  Submission storage sub= temp.Goals[_goal].Submissions[player];\n  temp.playerPoints[sub.sender]+=temp.Goals[_goal].points;\n}\n\n\n\nfunction GetPlayerInfo(address player,uint _game) constant returns(uint,uint,bool,bool){\n return(Games[_game].playerID[player],Games[_game].playerPoints[player],Games[_game].Wagered[player],Games[_game].registered[player]);\n}\nfunction GetGameDetails(uint _game) constant returns(address,address,uint,uint,uint,uint,uint,uint,uint){\n  Game memory temp=Games[_game];\n  return(temp.judge,temp.creator,temp.numberOfPlayers,temp.registeredPlayers,temp.playerWagerRequirement,temp.startDate,temp.endDate,temp.numberOfGoals,temp.goalsVerified);\n}\nfunction GetGoalDetails(uint _game,uint _goal) constant returns(uint,string,uint,bool,uint){\n  Goal memory temp=Games[_game].Goals[_goal];\n  return(temp.location,temp.Info,temp.points,temp.Verified,temp.submissionTotal);\n}\nfunction GetSubmission(address player,uint _game,uint _goal) constant returns(uint,bytes32){\nSubmission memory temp=Games[_game].Goals[_goal].Submissions[player];\nreturn(temp.time,temp.IPFShash);\n}\nfunction GetGamesArray(address user) constant returns(uint[]){\n  return GameID[user];\n}\nfunction SetGameID(uint n){\n      GameID[msg.sender].push(n);\n\n  }\n}\n",
  "sourcePath": "/home/jjj/IPFS/ScavengerHunt/contracts/ScavengerHunt.sol",
  "compiler": {
    "name": "solc",
    "version": "0.4.24+commit.e67f0147.Emscripten.clang"
  },
  "schemaVersion": "2.0.1",
  "updatedAt": "2018-08-09T16:07:57.807Z"
}