{
  "contractName": "PhotoBounty",
  "abi": [
    {
      "inputs": [
        {
          "name": "VI",
          "type": "uint256"
        },
        {
          "name": "AI",
          "type": "uint256"
        }
      ],
      "payable": false,
      "stateMutability": "nonpayable",
      "type": "constructor"
    },
    {
      "constant": false,
      "inputs": [
        {
          "name": "_payout",
          "type": "uint256"
        },
        {
          "name": "Start",
          "type": "uint256"
        },
        {
          "name": "End",
          "type": "uint256"
        },
        {
          "name": "_judge",
          "type": "address"
        },
        {
          "name": "_name",
          "type": "string"
        },
        {
          "name": "_info",
          "type": "bytes32"
        }
      ],
      "name": "CreateBounty",
      "outputs": [],
      "payable": true,
      "stateMutability": "payable",
      "type": "function"
    },
    {
      "constant": false,
      "inputs": [
        {
          "name": "bounty",
          "type": "uint256"
        },
        {
          "name": "_info",
          "type": "bytes32"
        }
      ],
      "name": "SetInfo",
      "outputs": [],
      "payable": false,
      "stateMutability": "nonpayable",
      "type": "function"
    },
    {
      "constant": false,
      "inputs": [
        {
          "name": "user",
          "type": "address"
        },
        {
          "name": "bounty",
          "type": "uint256"
        }
      ],
      "name": "RegisterParticipant",
      "outputs": [],
      "payable": false,
      "stateMutability": "nonpayable",
      "type": "function"
    },
    {
      "constant": false,
      "inputs": [
        {
          "name": "_Bounty",
          "type": "uint256"
        },
        {
          "name": "data",
          "type": "bytes32"
        }
      ],
      "name": "SubmitBounty",
      "outputs": [],
      "payable": false,
      "stateMutability": "nonpayable",
      "type": "function"
    },
    {
      "constant": false,
      "inputs": [
        {
          "name": "bounty",
          "type": "uint256"
        },
        {
          "name": "submission",
          "type": "uint256"
        }
      ],
      "name": "VerifySubmission",
      "outputs": [
        {
          "name": "",
          "type": "address"
        }
      ],
      "payable": false,
      "stateMutability": "nonpayable",
      "type": "function"
    },
    {
      "constant": false,
      "inputs": [
        {
          "name": "bounty",
          "type": "uint256"
        }
      ],
      "name": "DisputeClaim",
      "outputs": [],
      "payable": false,
      "stateMutability": "nonpayable",
      "type": "function"
    },
    {
      "constant": false,
      "inputs": [
        {
          "name": "bounty",
          "type": "uint256"
        },
        {
          "name": "data",
          "type": "bytes32"
        }
      ],
      "name": "DisputeDataUpload",
      "outputs": [],
      "payable": false,
      "stateMutability": "nonpayable",
      "type": "function"
    },
    {
      "constant": false,
      "inputs": [
        {
          "name": "bounty",
          "type": "uint256"
        }
      ],
      "name": "GetDisputeData",
      "outputs": [
        {
          "name": "",
          "type": "bytes32[]"
        }
      ],
      "payable": false,
      "stateMutability": "nonpayable",
      "type": "function"
    },
    {
      "constant": false,
      "inputs": [
        {
          "name": "_bounty",
          "type": "uint256"
        },
        {
          "name": "submission",
          "type": "uint256"
        },
        {
          "name": "_verification",
          "type": "bool"
        }
      ],
      "name": "VerifyDispute",
      "outputs": [],
      "payable": false,
      "stateMutability": "nonpayable",
      "type": "function"
    },
    {
      "constant": true,
      "inputs": [
        {
          "name": "_bounty",
          "type": "uint256"
        },
        {
          "name": "submission",
          "type": "uint256"
        }
      ],
      "name": "ViewSubmision",
      "outputs": [
        {
          "name": "",
          "type": "bytes32"
        },
        {
          "name": "",
          "type": "address"
        }
      ],
      "payable": false,
      "stateMutability": "view",
      "type": "function"
    },
    {
      "constant": false,
      "inputs": [
        {
          "name": "bounty",
          "type": "uint256"
        }
      ],
      "name": "WithDrawReward",
      "outputs": [],
      "payable": false,
      "stateMutability": "nonpayable",
      "type": "function"
    },
    {
      "constant": true,
      "inputs": [
        {
          "name": "_bounty",
          "type": "uint256"
        }
      ],
      "name": "GetBountyDetails",
      "outputs": [
        {
          "name": "",
          "type": "address"
        },
        {
          "name": "",
          "type": "address"
        },
        {
          "name": "",
          "type": "bytes32"
        },
        {
          "name": "",
          "type": "uint256"
        },
        {
          "name": "",
          "type": "uint256"
        },
        {
          "name": "",
          "type": "uint256"
        },
        {
          "name": "",
          "type": "uint256"
        },
        {
          "name": "",
          "type": "string"
        },
        {
          "name": "",
          "type": "bool"
        },
        {
          "name": "",
          "type": "uint256"
        },
        {
          "name": "",
          "type": "address"
        }
      ],
      "payable": false,
      "stateMutability": "view",
      "type": "function"
    },
    {
      "constant": true,
      "inputs": [
        {
          "name": "a",
          "type": "address"
        }
      ],
      "name": "getCreatedBounties",
      "outputs": [
        {
          "name": "",
          "type": "uint256[]"
        }
      ],
      "payable": false,
      "stateMutability": "view",
      "type": "function"
    },
    {
      "constant": true,
      "inputs": [
        {
          "name": "a",
          "type": "address"
        }
      ],
      "name": "gettotalCreatedBounties",
      "outputs": [
        {
          "name": "",
          "type": "uint256"
        }
      ],
      "payable": false,
      "stateMutability": "view",
      "type": "function"
    },
    {
      "constant": true,
      "inputs": [
        {
          "name": "a",
          "type": "address"
        }
      ],
      "name": "getRegisterdBounties",
      "outputs": [
        {
          "name": "",
          "type": "uint256[]"
        }
      ],
      "payable": false,
      "stateMutability": "view",
      "type": "function"
    },
    {
      "constant": true,
      "inputs": [
        {
          "name": "a",
          "type": "address"
        }
      ],
      "name": "gettotalRegisterdBounties",
      "outputs": [
        {
          "name": "",
          "type": "uint256"
        }
      ],
      "payable": false,
      "stateMutability": "view",
      "type": "function"
    },
    {
      "constant": true,
      "inputs": [
        {
          "name": "_bounty",
          "type": "uint256"
        }
      ],
      "name": "getDisputeStatus",
      "outputs": [
        {
          "name": "",
          "type": "bool"
        }
      ],
      "payable": false,
      "stateMutability": "view",
      "type": "function"
    },
    {
      "constant": true,
      "inputs": [
        {
          "name": "_bounty",
          "type": "uint256"
        }
      ],
      "name": "getTimePeriod",
      "outputs": [
        {
          "name": "",
          "type": "uint256"
        }
      ],
      "payable": false,
      "stateMutability": "view",
      "type": "function"
    }
  ],
  "bytecode": "0x608060405234801561001057600080fd5b50604051604080611e2d8339810180604052810190808051906020019092919080519060200190929190505050816000819055508060018190555060006008819055505050611dc9806100646000396000f3006080604052600436106100fc576000357c0100000000000000000000000000000000000000000000000000000000900463ffffffff168063177aad0e146101015780631fa48fe11461013c57806320f7aa3f14610169578063212c2219146101ae57806323df986a146101fb5780634c32a47c146102525780636ab1a734146102ea578063b65e220a1461036c578063c2ac99b314610399578063cec5f0ae14610410578063cf1d275814610496578063d1bf499414610612578063e595a67614610669578063e7e38988146106a4578063f0b5221f146106e5578063f59986bf1461077d578063f7b4d285146107b8578063ff850cf0146107fb575b600080fd5b34801561010d57600080fd5b5061013a6004803603810190808035906020019092919080356000191690602001909291905050506108a3565b005b34801561014857600080fd5b5061016760048036038101908080359060200190929190505050610ac9565b005b34801561017557600080fd5b5061019460048036038101908080359060200190929190505050610c2a565b604051808215151515815260200191505060405180910390f35b3480156101ba57600080fd5b506101f9600480360381019080803573ffffffffffffffffffffffffffffffffffffffff16906020019092919080359060200190929190505050610c54565b005b34801561020757600080fd5b5061023c600480360381019080803573ffffffffffffffffffffffffffffffffffffffff169060200190929190505050610db8565b6040518082815260200191505060405180910390f35b34801561025e57600080fd5b50610293600480360381019080803573ffffffffffffffffffffffffffffffffffffffff169060200190929190505050610e04565b6040518080602001828103825283818151815260200191508051906020019060200280838360005b838110156102d65780820151818401526020810190506102bb565b505050509050019250505060405180910390f35b3480156102f657600080fd5b5061031560048036038101908080359060200190929190505050610e9b565b6040518080602001828103825283818151815260200191508051906020019060200280838360005b8381101561035857808201518184015260208101905061033d565b505050509050019250505060405180910390f35b34801561037857600080fd5b5061039760048036038101908080359060200190929190505050610f0a565b005b3480156103a557600080fd5b506103ce6004803603810190808035906020019092919080359060200190929190505050610fff565b604051808273ffffffffffffffffffffffffffffffffffffffff1673ffffffffffffffffffffffffffffffffffffffff16815260200191505060405180910390f35b34801561041c57600080fd5b50610445600480360381019080803590602001909291908035906020019092919050505061115c565b6040518083600019166000191681526020018273ffffffffffffffffffffffffffffffffffffffff1673ffffffffffffffffffffffffffffffffffffffff1681526020019250505060405180910390f35b3480156104a257600080fd5b506104c16004803603810190808035906020019092919050505061120f565b604051808c73ffffffffffffffffffffffffffffffffffffffff1673ffffffffffffffffffffffffffffffffffffffff1681526020018b73ffffffffffffffffffffffffffffffffffffffff1673ffffffffffffffffffffffffffffffffffffffff1681526020018a6000191660001916815260200189815260200188815260200187815260200186815260200180602001851515151581526020018481526020018373ffffffffffffffffffffffffffffffffffffffff1673ffffffffffffffffffffffffffffffffffffffff168152602001828103825286818151815260200191508051906020019080838360005b838110156105cd5780820151818401526020810190506105b2565b50505050905090810190601f1680156105fa5780820380516001836020036101000a031916815260200191505b509c5050505050505050505050505060405180910390f35b34801561061e57600080fd5b50610653600480360381019080803573ffffffffffffffffffffffffffffffffffffffff1690602001909291905050506114b1565b6040518082815260200191505060405180910390f35b34801561067557600080fd5b506106a26004803603810190808035906020019092919080356000191690602001909291905050506114fd565b005b3480156106b057600080fd5b506106cf60048036038101908080359060200190929190505050611544565b6040518082815260200191505060405180910390f35b3480156106f157600080fd5b50610726600480360381019080803573ffffffffffffffffffffffffffffffffffffffff16906020019092919050505061167e565b6040518080602001828103825283818151815260200191508051906020019060200280838360005b8381101561076957808201518184015260208101905061074e565b505050509050019250505060405180910390f35b34801561078957600080fd5b506107b6600480360381019080803590602001909291908035600019169060200190929190505050611715565b005b3480156107c457600080fd5b506107f9600480360381019080803590602001909291908035906020019092919080351515906020019092919050505061173e565b005b6108a1600480360381019080803590602001909291908035906020019092919080359060200190929190803573ffffffffffffffffffffffffffffffffffffffff169060200190929190803590602001908201803590602001908080601f01602080910402602001604051908101604052809392919081815260200183838082843782019150505050505091929192908035600019169060200190929190505050611979565b005b6108ab611c1b565b600080846002600082815260200190815260200160002060080154421180156108e95750600260008281526020019081526020016000206009015442105b15156108f457600080fd5b600115156002600088815260200190815260200160002060050160003373ffffffffffffffffffffffffffffffffffffffff1673ffffffffffffffffffffffffffffffffffffffff16815260200190815260200160002060009054906101000a900460ff16151514151561096757600080fd5b606060405190810160405280428152602001866000191681526020013373ffffffffffffffffffffffffffffffffffffffff168152509350600260008781526020019081526020016000209250600183600c0154019150838360070160003373ffffffffffffffffffffffffffffffffffffffff1673ffffffffffffffffffffffffffffffffffffffff168152602001908152602001600020600082015181600001556020820151816001019060001916905560408201518160020160006101000a81548173ffffffffffffffffffffffffffffffffffffffff021916908373ffffffffffffffffffffffffffffffffffffffff1602179055509050503383600601600084815260200190815260200160002060006101000a81548173ffffffffffffffffffffffffffffffffffffffff021916908373ffffffffffffffffffffffffffffffffffffffff1602179055508183600c0181905550505050505050565b6001546000546002600084815260200190815260200160002060090154010142111515610af557600080fd5b60026000828152602001908152602001600020600d0160009054906101000a900473ffffffffffffffffffffffffffffffffffffffff1673ffffffffffffffffffffffffffffffffffffffff163373ffffffffffffffffffffffffffffffffffffffff16141515610b6557600080fd5b6000151560026000838152602001908152602001600020600b0160009054906101000a900460ff161515141515610b9b57600080fd5b600160026000838152602001908152602001600020600b0160006101000a81548160ff0219169083151502179055503373ffffffffffffffffffffffffffffffffffffffff166108fc60026000848152602001908152602001600020600401549081150290604051600060405180830381858888f19350505050158015610c26573d6000803e3d6000fd5b5050565b60006006600083815260200190815260200160002060009054906101000a900460ff169050919050565b6000816002600082815260200190815260200160002060010160009054906101000a900473ffffffffffffffffffffffffffffffffffffffff1673ffffffffffffffffffffffffffffffffffffffff163373ffffffffffffffffffffffffffffffffffffffff16141515610cc757600080fd5b60026000848152602001908152602001600020915060018260050160008673ffffffffffffffffffffffffffffffffffffffff1673ffffffffffffffffffffffffffffffffffffffff16815260200190815260200160002060006101000a81548160ff02191690831515021790555060018260030160008282540192505081905550600560008573ffffffffffffffffffffffffffffffffffffffff1673ffffffffffffffffffffffffffffffffffffffff16815260200190815260200160002083908060018154018082558091505090600182039060005260206000200160009091929091909150555050505050565b6000600560008373ffffffffffffffffffffffffffffffffffffffff1673ffffffffffffffffffffffffffffffffffffffff168152602001908152602001600020805490509050919050565b6060600360008373ffffffffffffffffffffffffffffffffffffffff1673ffffffffffffffffffffffffffffffffffffffff168152602001908152602001600020805480602002602001604051908101604052809291908181526020018280548015610e8f57602002820191906000526020600020905b815481526020019060010190808311610e7b575b50505050509050919050565b606060076000838152602001908152602001600020805480602002602001604051908101604052809291908181526020018280548015610efe57602002820191906000526020600020905b81546000191681526020019060010190808311610ee6575b50505050509050919050565b8060005460026000838152602001908152602001600020600901540142118015610f5157506001546000546002600084815260200190815260200160002060090154010142105b1515610f5c57600080fd5b600115156002600084815260200190815260200160002060050160003373ffffffffffffffffffffffffffffffffffffffff1673ffffffffffffffffffffffffffffffffffffffff16815260200190815260200160002060009054906101000a900460ff161515141515610fcf57600080fd5b60016006600084815260200190815260200160002060006101000a81548160ff0219169083151502179055505050565b6000806000846002600082815260200190815260200160002060010160009054906101000a900473ffffffffffffffffffffffffffffffffffffffff1673ffffffffffffffffffffffffffffffffffffffff163373ffffffffffffffffffffffffffffffffffffffff1614151561107557600080fd5b856002600082815260200190815260200160002060090154421180156110b4575060005460026000838152602001908152602001600020600901540142105b15156110bf57600080fd5b60026000888152602001908152602001600020935083600601600087815260200190815260200160002060009054906101000a900473ffffffffffffffffffffffffffffffffffffffff1692508284600d0160006101000a81548173ffffffffffffffffffffffffffffffffffffffff021916908373ffffffffffffffffffffffffffffffffffffffff1602179055508294505050505092915050565b600080600060026000868152602001908152602001600020600601600085815260200190815260200160002060009054906101000a900473ffffffffffffffffffffffffffffffffffffffff1690506002600086815260200190815260200160002060070160008273ffffffffffffffffffffffffffffffffffffffff1673ffffffffffffffffffffffffffffffffffffffff168152602001908152602001600020600101548192509250509250929050565b600080600080600080600060606000806000611229611c56565b600260008e815260200190815260200160002061016060405190810160405290816000820160009054906101000a900473ffffffffffffffffffffffffffffffffffffffff1673ffffffffffffffffffffffffffffffffffffffff1673ffffffffffffffffffffffffffffffffffffffff1681526020016001820160009054906101000a900473ffffffffffffffffffffffffffffffffffffffff1673ffffffffffffffffffffffffffffffffffffffff1673ffffffffffffffffffffffffffffffffffffffff16815260200160028201546000191660001916815260200160038201548152602001600482015481526020016008820154815260200160098201548152602001600a82018054600181600116156101000203166002900480601f0160208091040260200160405190810160405280929190818152602001828054600181600116156101000203166002900480156113c85780601f1061139d576101008083540402835291602001916113c8565b820191906000526020600020905b8154815290600101906020018083116113ab57829003601f168201915b50505050508152602001600b820160009054906101000a900460ff16151515158152602001600c8201548152602001600d820160009054906101000a900473ffffffffffffffffffffffffffffffffffffffff1673ffffffffffffffffffffffffffffffffffffffff1673ffffffffffffffffffffffffffffffffffffffff16815250509050806000015181602001518260400151836060015184608001518560a001518660c001518760e001518861010001518961012001518a61014001518393509b509b509b509b509b509b509b509b509b509b509b505091939597999b90929496989a50565b6000600360008373ffffffffffffffffffffffffffffffffffffffff1673ffffffffffffffffffffffffffffffffffffffff168152602001908152602001600020805490509050919050565b600760008381526020019081526020016000208190806001815401808255809150509060018203906000526020600020016000909192909190915090600019169055505050565b60008060009050600260008481526020019081526020016000206008015442101561156e57600190505b6002600084815260200190815260200160002060080154421180156115a85750600260008481526020019081526020016000206009015442105b156115b257600290505b6002600084815260200190815260200160002060090154421180156115f0575060005460026000858152602001908152602001600020600901540142105b156115fa57600390505b6000546002600085815260200190815260200160002060090154014211801561164057506001546000546002600086815260200190815260200160002060090154010142105b1561164a57600490505b6001546000546002600086815260200190815260200160002060090154010142111561167557600590505b80915050919050565b6060600560008373ffffffffffffffffffffffffffffffffffffffff1673ffffffffffffffffffffffffffffffffffffffff16815260200190815260200160002080548060200260200160405190810160405280929190818152602001828054801561170957602002820191906000526020600020905b8154815260200190600101908083116116f5575b50505050509050919050565b600060026000848152602001908152602001600020905081816002018160001916905550505050565b600080611749611c1b565b856002600082815260200190815260200160002060000160009054906101000a900473ffffffffffffffffffffffffffffffffffffffff1673ffffffffffffffffffffffffffffffffffffffff163373ffffffffffffffffffffffffffffffffffffffff161415156117ba57600080fd5b600115156006600089815260200190815260200160002060009054906101000a900460ff1615151415156117ed57600080fd5b60026000888152602001908152602001600020935083600601600087815260200190815260200160002060009054906101000a900473ffffffffffffffffffffffffffffffffffffffff1692508360070160008473ffffffffffffffffffffffffffffffffffffffff1673ffffffffffffffffffffffffffffffffffffffff16815260200190815260200160002060606040519081016040529081600082015481526020016001820154600019166000191681526020016002820160009054906101000a900473ffffffffffffffffffffffffffffffffffffffff1673ffffffffffffffffffffffffffffffffffffffff1673ffffffffffffffffffffffffffffffffffffffff1681525050915060011515851515141561194c578284600d0160006101000a81548173ffffffffffffffffffffffffffffffffffffffff021916908373ffffffffffffffffffffffffffffffffffffffff1602179055505b600015156006600089815260200190815260200160002060009054906101000a9050505050505050505050565b611981611c56565b6000873414151561199157600080fd5b610160604051908101604052808673ffffffffffffffffffffffffffffffffffffffff1681526020013373ffffffffffffffffffffffffffffffffffffffff1681526020018460001916815260200160008152602001898152602001888152602001878152602001858152602001600015158152602001600081526020013373ffffffffffffffffffffffffffffffffffffffff1681525091506001600854019050816002600083815260200190815260200160002060008201518160000160006101000a81548173ffffffffffffffffffffffffffffffffffffffff021916908373ffffffffffffffffffffffffffffffffffffffff16021790555060208201518160010160006101000a81548173ffffffffffffffffffffffffffffffffffffffff021916908373ffffffffffffffffffffffffffffffffffffffff16021790555060408201518160020190600019169055606082015181600301556080820151816004015560a0820151816008015560c0820151816009015560e082015181600a019080519060200190611b29929190611cf8565b5061010082015181600b0160006101000a81548160ff02191690831515021790555061012082015181600c015561014082015181600d0160006101000a81548173ffffffffffffffffffffffffffffffffffffffff021916908373ffffffffffffffffffffffffffffffffffffffff160217905550905050600360003373ffffffffffffffffffffffffffffffffffffffff1673ffffffffffffffffffffffffffffffffffffffff168152602001908152602001600020819080600181540180825580915050906001820390600052602060002001600090919290919091505550806008819055505050505050505050565b6060604051908101604052806000815260200160008019168152602001600073ffffffffffffffffffffffffffffffffffffffff1681525090565b61016060405190810160405280600073ffffffffffffffffffffffffffffffffffffffff168152602001600073ffffffffffffffffffffffffffffffffffffffff16815260200160008019168152602001600081526020016000815260200160008152602001600081526020016060815260200160001515815260200160008152602001600073ffffffffffffffffffffffffffffffffffffffff1681525090565b828054600181600116156101000203166002900490600052602060002090601f016020900481019282601f10611d3957805160ff1916838001178555611d67565b82800160010185558215611d67579182015b82811115611d66578251825591602001919060010190611d4b565b5b509050611d749190611d78565b5090565b611d9a91905b80821115611d96576000816000905550600101611d7e565b5090565b905600a165627a7a7230582038914157e7054693e12a969656b118aa031ae36226d9540df002ed955c8390dc0029",
  "source": "\npragma solidity ^0.4.24;\n\ncontract PhotoBounty{\n\nuint validationInterval;\nuint arbitrationInterval;\nmapping(uint=>Bounty) BountyMap;\nmapping(address=>uint[]) BountyList;\nmapping(uint=>address) winner;\nmapping(address=>uint[]) RegisteredBounties;\nmapping(uint=>bool) Disputed;\nmapping(uint=>bytes32[]) DisputeData;\nuint totalBounties;\n\n\nconstructor(uint VI,uint AI){\n  validationInterval=VI;\n  arbitrationInterval=AI;\n  totalBounties=0;\n}\nstruct Bounty{\n  address Arbitor;\n  address creator;\n  bytes32 Info;\n  uint registeredPlayers;\n\n  uint payout;\n  mapping(address=>bool) registered;\n  mapping(uint=>address) SubmissionOrder;\n  mapping(address=>Submission) Submissions;\n  //mapping(address=>uint) verified;\n  uint startDate;\n  uint endDate;\n\n\n  string name;\n  bool finished;\n  uint totalSubmissions;\n  address winner;\n}\n\nstruct Submission{\n  uint time;\n\n  bytes32 IPFShash;\n  address sender;\n}\nmodifier isCreator(uint _bounty){\n\nrequire(msg.sender==BountyMap[_bounty].creator);\n_;\n}\nmodifier isArbitor(uint _bounty){\n\nrequire(msg.sender==BountyMap[_bounty].Arbitor);\n_;\n}\nmodifier isSubmitable(uint _bounty){\nrequire((now>BountyMap[_bounty].startDate)&&(now<BountyMap[_bounty].endDate));\n_;\n}\nmodifier isVerifiable(uint _bounty){\nrequire((now>BountyMap[_bounty].endDate)&&(now<(BountyMap[_bounty].endDate+validationInterval)));\n_;\n}\nmodifier isDisputable(uint _bounty){\nrequire((now>(BountyMap[_bounty].endDate+validationInterval))&&(now<(BountyMap[_bounty].endDate+validationInterval+arbitrationInterval)));\n_;\n}\n\nfunction CreateBounty(uint _payout,uint Start,uint End,address _judge,string _name,bytes32 _info) payable {\nrequire(msg.value==_payout);\nBounty memory temp =Bounty(_judge,msg.sender,_info,0,_payout,Start,End,_name,false,0,msg.sender);\nuint total=totalBounties+1;\nBountyMap[total]=temp;\nBountyList[msg.sender].push(total);\ntotalBounties=total;\n}\nfunction SetInfo(uint bounty,bytes32 _info){\nBounty storage temp=BountyMap[bounty];\n    temp.Info=_info;\n}\nfunction RegisterParticipant(address user,uint bounty) isCreator(bounty){\n\n  Bounty storage temp=BountyMap[bounty];\n  temp.registered[user]=true;\n  temp.registeredPlayers+=1;\n  RegisteredBounties[user].push(bounty);\n}\nfunction SubmitBounty(uint _Bounty,bytes32 data) isSubmitable(_Bounty){\n  require(BountyMap[_Bounty].registered[msg.sender]==true);\n\n  Submission memory Sub=Submission(now,data,msg.sender);\n  Bounty storage temp=BountyMap[_Bounty];\n  uint count=temp.totalSubmissions+1;\n  temp.Submissions[msg.sender]=Sub;\n  temp.SubmissionOrder[count]=msg.sender;\n  temp.totalSubmissions=count;\n\n}\nfunction VerifySubmission(uint bounty,uint submission) isCreator(bounty) isVerifiable(bounty) returns(address){\n\n  Bounty storage temp=BountyMap[bounty];\n  address user=temp.SubmissionOrder[submission];\n\n\n\n  temp.winner=user;\n  return user;\n}\n\nfunction DisputeClaim(uint bounty) isDisputable(bounty) {\n  require(BountyMap[bounty].registered[msg.sender]==true);\n   Disputed[bounty]=true;\n}\nfunction DisputeDataUpload(uint bounty,bytes32 data){\nDisputeData[bounty].push(data);\n\n}\nfunction GetDisputeData(uint bounty) returns(bytes32[]){\n  return DisputeData[bounty];\n}\nfunction VerifyDispute(uint _bounty,uint submission,bool _verification)  isArbitor(_bounty){\n  require(Disputed[_bounty]==true);\n  Bounty storage temp=BountyMap[_bounty];\n  address user=temp.SubmissionOrder[submission];\n  Submission memory S=temp.Submissions[user];\n\n  if(_verification==true){\n    temp.winner=user;\n  }\n  Disputed[_bounty]==false;\n}\nfunction ViewSubmision(uint _bounty,uint submission) constant returns(bytes32,address){\n   address a= BountyMap[_bounty].SubmissionOrder[submission];\n   return (BountyMap[_bounty].Submissions[a].IPFShash,a);\n}\nfunction WithDrawReward(uint bounty){\n  require(now>(BountyMap[bounty].endDate+validationInterval+arbitrationInterval));\n  require(msg.sender==BountyMap[bounty].winner);\n  require(BountyMap[bounty].finished==false);\n  BountyMap[bounty].finished=true;\n  msg.sender.transfer(BountyMap[bounty].payout);\n}\n//CreateBounty(uint _payout,uint Start,uint End,address _judge,string _name,bytes32 _info)\n\nfunction GetBountyDetails(uint _bounty) constant returns(address,address,bytes32,uint,uint,uint,uint,string,bool,uint,address){\n    Bounty memory t=BountyMap[_bounty];\n  return(t.Arbitor,t.creator,t.Info,t.registeredPlayers,t.payout,t.startDate,t.endDate,t.name,t.finished,t.totalSubmissions,t.winner);\n  }\n  function getCreatedBounties(address a) constant returns(uint[]){\n     return BountyList[a];\n  }\n  function gettotalCreatedBounties(address a) constant returns(uint){\n     return BountyList[a].length;\n  }\n  function getRegisterdBounties(address a) constant returns(uint[]){\n     return RegisteredBounties[a];\n  }\n  function gettotalRegisterdBounties(address a) constant returns(uint){\n     return RegisteredBounties[a].length;\n  }\n  function getDisputeStatus(uint _bounty) constant returns(bool){\n    return Disputed[_bounty];\n  }\n  function getTimePeriod(uint _bounty )constant returns(uint){\n    uint ret=0;\n    if(now<BountyMap[_bounty].startDate) ret=1;\n    if((now>BountyMap[_bounty].startDate)&&(now<BountyMap[_bounty].endDate)) ret=2;\n    if((now>BountyMap[_bounty].endDate)&&(now<(BountyMap[_bounty].endDate+validationInterval)) ) ret=3;\n    if((now>(BountyMap[_bounty].endDate+validationInterval))&&(now<(BountyMap[_bounty].endDate+validationInterval+arbitrationInterval))) ret=4;\n    if(now>(BountyMap[_bounty].endDate+validationInterval+arbitrationInterval)) ret=5;\n    return ret;\n  }\n\n}\n",
  "sourcePath": "/home/jjj/IPFS/ScavengerHunt/contracts/PhotoBounty.sol",
  "compiler": {
    "name": "solc",
    "version": "0.4.24+commit.e67f0147.Emscripten.clang"
  },
  "schemaVersion": "2.0.1",
  "updatedAt": "2018-08-16T17:03:51.465Z"
}